:020000040800F2
:10000000B0110020850200088D0200088F02000850
:100010009102000893020008950200080000000009
:10002000000000000000000000000000BD0100080A
:100030009902000800000000350200087102000863
:100040009F0200089F0200089F0200089F0200080C
:100050009F0200089F0200089F0200089F020008FC
:100060009F0200089F0200089F0200089F020008EC
:100070009F0200089F0200089F0200089F020008DC
:100080009F0200089F0200089F020008211000083C
:1000900039110008ED030008D90400089F02000888
:1000A0009F0200089F0200089F0200089F020008AC
:1000B0009F0200089F0200089F0200089F0200089C
:1000C0009F0200089F0200089F0200089F0200088C
:1000D0009F0200089F0200089F0200089F0200087C
:1000E0009F0200089F0200089F0200089F0200086C
:1000F0009F0200089F0200089F0200089F0200085C
:100100009F0200089F0200089F0200089F0200084B
:100110009F0200089F0200089F0200089F0200083B
:100120009F0200089F0200089F0200089F0200082B
:10013000DFF81CD000F01AF901F0B2F900210348F1
:1001400001F002FA01F0BEF9FEE700007027000896
:10015000B011002080F309887047EFF309807047E1
:10016000684680F3098804480078C00714BF02205D
:10017000032080F31488704730270008DFF818C088
:10018000EFF305831B0618BF6047EFF31483DB070B
:1001900008BF604700DF70475B160008DFF818C033
:1001A000EFF305831B0618BF6047EFF31483DB07EB
:1001B00008BF604700DF704741180008EFF309806F
:1001C000816911F8021CF1B990E80F10E047EFF3D4
:1001D000098C8CE80700144B93E8060091420FD07D
:1001E00039B12CE9F00FC1F828C00CB401F01CFEA5
:1001F0000CBC1A60D2F828C0BCE8F00F8CF3098858
:100200006FF0020E704710B5084A1268914209D883
:10021000074C54F8214090E80F10A047EFF3098CE9
:100220008CE80F0010BD000064040020E803000803
:10023000E803000801F0CAFC0C4B93E80600914269
:1002400010D0EFF3098C2CE9F00FC1F828C00CB4E2
:1002500001F0EAFD0CBC1A60D2F828C0BCE8F00F2F
:100260008CF309886FF0020E7047000064040020D0
:1002700001F0A2FEE0E7000001F0EEF901F09CFEC3
:10028000DAE700000648804706480047FEE7FEE739
:10029000FEE7FEE7FEE7FEE7FEE7FEE7FEE7FEE736
:1002A000F50D0008310100082DE9F05F054600203A
:1002B00092469B4688460646814640241BE02846D7
:1002C00041464746224600F041F853465A46C01A76
:1002D000914110D311461846224600F028F82D1AF5
:1002E00067EB01084F4622460120002100F01FF86D
:1002F00017EB00094E41201EA4F10104DFDC484643
:1003000031462A464346BDE8F09F40EA01039B0779
:1003100003D009E008C9121F08C0042AFAD203E07A
:1003200011F8013B00F8013B521EF9D27047202A18
:1003300004DB203A00FA02F1002070479140C2F13C
:10034000200320FA03F3194390407047202A04DB6E
:10035000203A21FA02F00021704721FA02F3D0403E
:10036000C2F120029140084319467047064C074DE0
:1003700006E0E06840F0010394E807009847103475
:10038000AC42F6D3FFF7D8FE80270008A02700086C
:1003900070B58C1810F8015B15F0070301D110F847
:1003A000013B2A1106D110F8012B03E010F8016B74
:1003B00001F8016B5B1EF9D12B0705D40023521EF7
:1003C0000DD401F8013BFAE710F8013BCB1A921C5F
:1003D00003E013F8015B01F8015B521EF9D5A1425D
:1003E000D8D3002070BD00000000000070B5364872
:1003F000006800F0030078B134484078022808D142
:100400003348006840B13248022102680120904719
:1004100002E020202C4908602B48006800F0100002
:1004200058B12A484078022807D12948006820B1ED
:1004300027480421026801209047234808300468B7
:10044000001F056804F0040088B905F4806070B9E5
:100450001D48001D006840F480601B49091D0860AC
:100460001C48006818B11B4801680320884704F045
:10047000020088B905F4007070B91348001D0068C7
:1004800040F400701049091D08601248006818B156
:10049000104801680120884704F0010090B905F474
:1004A000807078B9C4F307405F280BD25F20B0EBAF
:1004B000146F07D10448001D006840F480700249A1
:1004C000091D086070BD0000106400403A0400205F
:1004D000440400204004002070B522480068002831
:1004E0003FD021480468001F056804201E491439C4
:1004F000086004F0040078B105F4806060B11A4827
:10050000001F006820F480601749091F0860154823
:1005100001680420884724E004F0020078B105F463
:10052000007060B11048001F006820F400700E4990
:10053000091F08600B4801680320884711E004F098
:10054000010070B105F4807058B10748001F0068C1
:1005500020F480700449091F0860024801680220E5
:10056000884770BD400400201864004001461D48C3
:10057000814204D11C488069C0F3800070471B4849
:10058000814204D118488069C0F3C000F6E71848DA
:10059000814204D114488069C0F30010EEE7154889
:1005A000814204D110488069C0F34010E6E7124848
:1005B000814204D10C488069C0F38010DEE70F4807
:1005C000814204D108488069C0F3C010D6E70C48C6
:1005D000814204D104488069C0F30020CEE70020A6
:1005E000CCE700000008014000100240000C014070
:1005F000001001400014014000180140001C01409F
:10060000002001402DE9F04105460C46174698466A
:100610000F2C02D90020BDE8F0812846FFF7A6FF85
:1006200018B90121284600F029F8B8F1000F10D1BF
:10063000022F05D1E8680121A1408843E86008E065
:10064000032F06D127F00107E8680121A1400843E4
:10065000E860082C01D22E4601E0083C2E1D3068CF
:10066000A2000F2191408843306048EA8700A10032
:1006700088403168084330600120CCE7002945D02C
:10068000454A904206D1454A926942F00402434BE2
:100690009A6180E0424A904206D1404A926942F013
:1006A00008023E4B9A6176E03E4A904206D13B4AB0
:1006B000926942F01002394B9A616CE03A4A9042DA
:1006C00006D1364A926942F02002344B9A6162E0C8
:1006D000364A904206D1314A926942F040022F4B8D
:1006E0009A6158E0324A904206D12C4A926942F00F
:1006F00080022A4B9A614EE02E4A90424BD1274A03
:10070000926942F48072254B9A6144E0224A9042F9
:1007100006D1224A926922F00402204B9A613AE003
:100720001F4A904206D11D4A926922F008021B4BD3
:100730009A6130E01B4A904206D1184A926922F031
:100740001002164B9A6126E0174A904206D1134ACE
:10075000926922F02002114B9A611CE0134A9042E8
:1007600006D10E4A926922F040020C4B9A6112E0C7
:100770000F4A904206D1094A926922F08002074B43
:100780009A6108E00B4A904205D1044A926922F42A
:100790008072024B9A6170470008014000100240CD
:1007A000000C0140001001400014014000180140FD
:1007B000001C014000200140416170470161704709
:1007C00010B5014601292FD100202AE02F4C04EB5F
:1007D000001422682D4C04EB001423799468DC404B
:1007E00004F00104B4B1294A02EB0012D268521C91
:1007F000264B03EB0013DA60244A02EB0012D268A6
:100800004FF6FA739A420AD91A46204B03EB0013AB
:10081000DA6004E000221D4B03EB0013DA60421C97
:1008200010460428D2D32FE071BB00202AE0174CD9
:1008300004EB00142268154C04EB0014237994682F
:10084000DC4004F00104B4B9104A02EB0012D26893
:10085000521C0E4B03EB0013DA600C4A02EB001241
:10086000D2684FF6FA739A420AD91A46074B03EB3D
:100870000013DA6004E00022044B03EB0013DA609B
:10088000421C10460428D2D310BD0000840300206F
:1008900010B500F00BF8002000F01CF8024800F042
:1008A00075F900F071F810BD0038014010B5002254
:1008B0000121064800F070FE054908604FF47A7186
:1008C0000348006800F07EFE10BD0000702600089E
:1008D000A403002070B50546012D18D1002413E0B3
:1008E000184901EB041108680121FFF7C7FE154AFA
:1008F00002EB04121179134A02EB04120023106870
:100900000222FFF77FFE641C042CE9D318E0BDB976
:10091000002413E00B4901EB041108680121FFF7E3
:10092000ADFE084A02EB04121179064A02EB0412EA
:10093000002310680322FFF765FE641C042CE9D332
:1009400070BD0000840300202DE9F04107460C46ED
:100950001546002612E005EB85000A4A02EB40032B
:100960003046721CD6B2195C384600F0F9FA00BF66
:100970008021384600F07AFA0028F9D0A642EADB56
:10098000BDE8F0810000002070B5002423E0144988
:1009900051F834000121FFF771FE114B53F8340078
:1009A00003EBC403197900221AB101238B400361C0
:1009B00004E001F1100301259D40056100BF084AD4
:1009C00002EBC4021179064A52F8340002230022D5
:1009D000FFF718FE641C032CD9D3002070BD000063
:1009E0005826000830B50146094C54F8310004EB94
:1009F000C104227901231BB101249440046104E065
:100A000002F110040125A540056100BF002030BDA2
:100A10005826000870B586B0012408250026142247
:100A20003BA101A8FFF771FC3E48046057E03E4837
:100A300005604BE03D4806603EE03D48C069142833
:100A400000D93DE04FF400613A48FFF7B5FE01A937
:100A5000364A1268885C00F02BF901A9324A126804
:100A6000885C00F025F901A92E4A1268885C00F024
:100A70001FF94FF400612F48FFF7A0FE41F26F709D
:100A800000F002FD2948006800B9092626480068E0
:100A900000B909252348006848B92348006830B9DF
:100AA0002248006818B901202349087008E01F484F
:100AB0000068401E1D4908601C4800680028BCDA18
:100AC00000BF19480068401E1749086016480068B2
:100AD0000028AFDA13480068401E12490860114828
:100AE00000680028A3DA4FF400611248FFF764FEA3
:100AF000002000F0DDF8002000F0DAF8002000F01F
:100B0000D7F84FF400610B48FFF758FE06B070BDF0
:100B1000C0CFA4B0999282F880908883C6A1868EB7
:100B2000FF7F0000380300203C030020400300202A
:100B300084030020001401404403002010B5022269
:100B40000A211048FFF700FF0F48C068642804D945
:100B500001220A210B48FFF7F7FE0020FFF742FFB2
:100B6000FFF758FF0421002000F094FB0120FFF75D
:100B700039FF0921052000F08DFB0220FFF732FF2D
:100B800010BD0000003801408403002010B5044669
:100B9000204600F0E9F9002010BD000029B1064A06
:100BA000D2690243044BDA6104E0034AD26982430A
:100BB000014BDA61704700000010024029B1064A7B
:100BC00092690243044B9A6104E0034A92698243AA
:100BD000014B9A61704700000010024030B50021BF
:100BE0000022002400232D4D6D6805F00C0121B179
:100BF000042905D0082923D105E0294D056022E00C
:100C0000274D05601FE0254D6D6805F47012234DDA
:100C10006D6805F48034022505EB92421CB9214D24
:100C2000554305600BE01D4D6D6805F400351DB1A1
:100C30001C4D5543056002E0194D5543056002E027
:100C4000174D056000BF00BF144D6D6805F0F00141
:100C50000909154D6B5C0568DD4045600F4D6D68F9
:100C600005F4E061090A104D6B5C4568DD40856064
:100C70000A4D6D6805F46051C90A0B4D6B5C4568FF
:100C8000DD40C560054D6D6805F44041890B074D99
:100C90006B5CC568B5FBF3F5056130BD0010024023
:100CA00000127A0000093D0048040020580400208A
:100CB00070B50446002524E04FF480511248FFF738
:100CC0007BFD022000F0E0FB04F08006802E04D1C2
:100CD000B1010D48FFF772FD04E04FF400510A48DE
:100CE000FFF76AFD1E2000F0CFFB6006040E4FF4F4
:100CF00080510548FFF762FD022000F0C5FB681C2B
:100D0000C5B2082DD8DB70BD0014014010B500F04D
:100D100001F810BD0CB50020019000903348006828
:100D200040F480303149086000BF3048006800F46A
:100D3000003000900198401C0190009818B901986B
:100D4000B0F5A06FF1D12948006800F4003010B16F
:100D50000120009001E0002000900098012843D17C
:100D60002348006840F010002149086008460068E8
:100D700020F0030008600846006840F002000860A8
:100D80001A48406819494860084640684860084663
:100D9000406840F4806048600846406820F47C1059
:100DA00048600846406840F4E8104860084600681B
:100DB00040F08070086000BF0C48006800F00070D0
:100DC0000028F9D00948406820F00300074948602E
:100DD0000846406840F00200486000BF0348406891
:100DE00000F00C000828F9D10CBD000000100240F2
:100DF0000020024010B51348006840F0010011497E
:100E0000086008464068104908400E494860084696
:100E100000680E4908400B4908600846006820F445
:100E2000802008600846406820F4FE0048604FF4C7
:100E30001F008860FFF76AFF4FF0006004490860F8
:100E400010BD0000001002400000FFF8FFFFF6FE9A
:100E500008ED00E021B1828942F40052828104E071
:100E600082894DF6FF731A40828170470246002046
:100E7000B1F5007F00D100BF13880B400BB10120FA
:100E800000E00020704700002DE9F04786B00546DD
:100E90000E460024A24600BFA1460027B08900B13B
:100EA00000BF2F462C8A4CF6FF700440F0880443A4
:100EB0002C82AC894EF6F3100440B0883189084387
:100EC000718908430443AC81AC8A4FF6FF4004406B
:100ED000B0890443AC8201A8FFF780FE1F48874217
:100EE00002D1DDF810A001E0DDF80CA0A88900F423
:100EF000004040B10AEBCA0000EB0A10316849001B
:100F0000B0FBF1F807E00AEBCA0000EB0A10316809
:100F10008900B0FBF1F86420B8FBF0F0040120096F
:100F2000642101FB1089A88900F4004040B13220FF
:100F300000EBC900B0FBF1F000F00700044308E04B
:100F4000322000EB09106421B0FBF1F000F00F003B
:100F500004432C8106B0BDE8F08700000038014052
:100F6000C1F30802828070477FB5054601218803DE
:100F7000FFF724FE01214804FFF710FE0121880439
:100F8000FFF70CFE0121C804FFF708FE0121080548
:100F9000FFF704FE002422E01F4951F8340001212C
:100FA000FFF76CFB1C4A02EBC40211791A4A52F893
:100FB000340003230222FFF725FB184951F83400BF
:100FC0000121FFF75BFB154A02EBC4021179134ABA
:100FD00052F8340000230122FFF714FB641C052C97
:100FE000DAD34FF4165000900020ADF80400ADF8AD
:100FF0000600ADF80800ADF80C000C20ADF80A00B2
:1010000069462846FFF740FF01212846FFF722FFE7
:10101000002004B070BD000008260008302600083B
:1010200070B54148006800F0020070B13F48807818
:10103000012807D13E48006820B13D4801210268DF
:10104000022090470120384908603748006800F4C2
:10105000007078B13548C078012807D1344800685D
:1010600020B1334801210268032090474FF480707B
:101070002D4908602C48006800F4003078B12B48F6
:101080000079012807D12A48006820B128480121A9
:101090000268042090474FF48030234908602248BA
:1010A00010300468001F056804F0040088B905F4D6
:1010B000806070B91C480C30006840F480601A49A8
:1010C0000C3108601B48006818B11A4801680320F9
:1010D000884704F0020088B905F4007070B912481E
:1010E0000C30006840F400700F490C310860114862
:1010F000006818B10F4801680120884704F001001A
:1011000088B905F4807070B9C4F307405F280AD12C
:10111000B0EB146F07D904480C30006840F48070BD
:1011200001490C31086070BD086400403A04002099
:10113000440400204004002070B53648006800F0E8
:10114000030078B134480078022808D13348006899
:1011500040B13248022102680020904702E020207E
:101160002C4908602B48006800F0100058B12A484C
:101170000078022807D12948006820B127480421B7
:1011800002680020904723480C300468001F05685F
:1011900004F0040088B905F4806070B91D48083077
:1011A000006840F480601B49083108601C480068F2
:1011B00018B11B4801680320884704F0020088B971
:1011C00005F4007070B913480830006840F40070EE
:1011D0001049083108601248006818B110480168C9
:1011E0000120884704F0010090B905F4807078B9B7
:1011F000C4F307405F280BD25F20B0EB146F07D118
:1012000004480830006840F48070024908310860E2
:1012100070BD00000C6400403A040020440400202B
:101220004004002002E008C8121F08C1002AFAD1B9
:1012300070477047002001E001C1121F002AFBD156
:10124000704710B5002A06DA22F00042D21D22F0C3
:101250000703102203E0D21C22F003030C2213B177
:101260009C188C4201D9012010BD024401448360C6
:10127000C0E90021C91AD018884202D8106002467D
:10128000F9E70020106010BD10B504460020FFF7FC
:1012900097FA10BD2DE9F05F06460F4657E000BFF4
:1012A0004FF00008C146354602E0A84444466D1C94
:1012B000BD42FADD354644E0274800EB0510C06822
:1012C00064283DD9A8EB0508B9F1050F2CD2DFE859
:1012D00009F0030910171E002046A04201D04FF06C
:1012E000010B22E02046401EA04201D04FF0010B2E
:1012F0001BE02046C01EA04201D04FF0010B14E0BD
:101300002046801FA04201D04FF0010B0DE0204687
:101310000A38A04201D04FF0010B20460A38A04203
:1013200001D14FF0010A00E000BF00BF09F101093F
:10133000BBF1010F04D14FF0000BFFF76BFBAFE7E0
:101340006D1CBD42B8DDBAF1010F00D100E0A6E787
:1013500000BFBDE8F09F000084030020084800683B
:10136000C0010BD507480068C00707D00548803882
:101370000068002802DA0449012008707047000064
:10138000FCED00E0800E00E0780400204FF06042A9
:10139000D36F002BFCD0036BD367D36F002BFCD033
:1013A000C07840EA0120A2F87C0070474FF060410D
:1013B000CA6F002AFCD081F87C0070470EB58022ED
:1013C00000B109B110460AE001780129FAD101A95A
:1013D00000F020F8042801D0002000E01020DDE912
:1013E000011203B000BD70B50D46040003D012B960
:1013F0002078012801D0802070BD204600F0E0FA5E
:1014000028B12946204600F030F8002070BD812028
:1014100070BD000010B504468089002824D0608982
:1014200004EB800000690860606840B160780228C1
:1014300005D10021204600F017FC00F005FC04F166
:101440000C0000BFD0E85F1F491E8AB2C0E8512FD0
:101450000029F7D16089401C80B26081E18988420F
:1014600001D100206081042010BD10B500F0FCFB0C
:10147000BDE8104000F0E8BB00F012F8FFF708FAF2
:1014800001E0FFF75BFBFCE7EFF3058109B1822088
:101490007047DFF808C000DF704700000D23000828
:1014A000EFF3058008B182207047EFF31480C00786
:1014B00003D0DFF80CC000DF704700F031BF000040
:1014C0002123000888B0EFF3058010B1822008B016
:1014D0007047EFF3148010F00301134806D0012980
:1014E0001BD0022911D0032919D113E008A981F3D7
:1014F00009880078C0070BD05FF0020080F31488E1
:10150000BFF34F8FBFF36F8F09E00078C00706D19C
:101510000320F3E70078C00701D0FF20D7E7DFF80A
:101520000CC000DFD3E7000030270008912300083B
:10153000EFF305820AB1FFF741BFDFF808C000DF13
:1015400070470000FD230008EFF305820AB1002078
:101550007047EFF31482D20702D1044A52781AB1CD
:10156000DFF80CC000DF704700F066BF5C040020AD
:1015700039240008DFF80CC000DFDFF80CC000DF02
:10158000FEE70000A5240008C1240008DFF804C01D
:1015900000DF7047F9240008EFF305830BB100204A
:1015A0007047EFF31483DB0702D1044B5B781BB168
:1015B000DFF80CC000DF704700F0AABF5C04002019
:1015C00011250008EFF305820AB182207047DFF889
:1015D00008C000DF7047000049250008094C4FF0A3
:1015E000FF3529462068FFF7A3FF02460846102A68
:1015F000F7D1FFF7CBFF0028F3D00246084690470B
:10160000EFE700002C040020012806D0022805D0B6
:10161000032804D0042804D102E003E002E001E042
:1016200000E000BF00BF00BFFEE700BFFEE7000014
:10163000074801684FF0E0204161002181610721E6
:1016400001610448016841F07F4101604017704723
:101650002C27000820ED00E0704750E8001F31B152
:101660000B6840E80032002AF7D108467047BFF304
:101670002F8FFAE710B568B161B10B3121F0030289
:10168000016844680B1A1B1B934205D2084609687F
:101690000029F5D1002010BD210007D021180368D2
:1016A000C1E90032016001F1080010BD426008305C
:1016B00010BD000070B50D46002812D04FF6FF7126
:1016C000084C884204D222680146104600F0FAFA1B
:1016D00020684570044800F0DDF8BDE8704000F077
:1016E000B5BB70BD640400207C0D00200F4810B510
:1016F0000D4942680E480B680068934204D00A60A6
:10170000CB88421E1A448A808A8880B282420AD1DB
:1017100000200860054800F0BDF80146BDE8104013
:10172000024800F0F3BA10BD7C0400207C0D0020BC
:101730007404002070B5194DE86800282CD0A88AE0
:10174000401EA882002621E0A06838B1616841608F
:10175000606810B1A16881606660A6600F4821468C
:10176000183800F0D3FAA08AA8826078042804D13F
:101770000B49E08A09880844A08201206070E06873
:10178000E860E06808B10561E6602661A88A002883
:1017900002D1EC68002CD7D170BD0000940D002060
:1017A0007404002070B504000FD00D4DA1780126FF
:1017B0002868827891420CD900F0C4FA28684670F3
:1017C0002046BDE8704000F041BB064800F062F8DA
:1017D000F7E766702146BDE87040024800F096BA0F
:1017E000640400207C0D00200321FFF763BF00008C
:1017F00010B50446008B084320836278618B062A6B
:1018000018D0052A19D1084217D001EA00026283D4
:1018100088432083204600F0C0FA01206070628B6C
:101820000821204600F0B5FA2146BDE810400348E3
:1018300000F06CBA31EA0002EAD010BD7C0D002045
:10184000814202D342688A4201D80120704702686F
:101850000A60BFF35F8F50E8003F0A689A42F6D1F2
:1018600040E80012002AF2D10020704768B161B14F
:101870000022083902E00246006830B18842FAD1FD
:101880002AB10068106000207047012070470021D5
:101890004160F8E70146406842684A600B780022E0
:1018A000022B05D0012B03D0032B01D042607047DF
:1018B00043680BB19960426082607047810700D035
:1018C0000020704770B504460020154620700122A4
:1018D0006270A17084F824106060A060E0602061F4
:1018E0002062A082E0822083608384F82500E08C5F
:1018F00018B90548FFF7B1FEE06229462046BDE869
:10190000704000F01DB800001806002008B108293A
:1019100001D2012070470144091F002201600A60C2
:1019200042601046704700000348002101600349EF
:101930000988C180704700007C040020202700082F
:1019400070B5C28C1C4D930802D12A88C2F38D0356
:10195000C26A02EB8302540700D5121F4FF0807455
:1019600042E9021400242646B2F1400242F8246003
:10197000641C0E2CFAD3C469146282620163296864
:10198000C90014D5112B12D94FF0FF31103B11EBC8
:1019900053014FF0CC3305D042F8043C42F8083DE7
:1019A000491EF9D1C16A121F8A4200D91360C06A68
:1019B0000249016070BD00001C270008A52E5AE2F4
:1019C000C1898089081A7047012202700022427082
:1019D0008270426002814281103982818908C1810E
:1019E000704700002DE9F041044640680E464FF074
:1019F000000804F10C05E8B36078012701283ED007
:101A0000022813D003285CD10846FFF726FE050004
:101A100057D02046FFF73EFF0446294600F0B6F9AE
:101A20006770204600F0B9F9214621E02046FFF713
:101A300031FF0646002100F0A9F92189F06904EB85
:101A400081010861D5E85F0F401C81B2C5E8501FD5
:101A50000028F7D12089401C80B22081E18988428A
:101A600001D1A4F808807770304600F096F931462D
:101A7000174800E00CE0BDE8F04100F047B920460F
:101A8000FFF708FF04463246102100F082F9C7E74D
:101A9000A089E189884216D2208904EB8000066182
:101AA000D5E85F0F401C81B2C5E8501F0028F7D170
:101AB0002089401C80B22081E189884201D1A4F8AC
:101AC0000880BDE8F081BDE8F0410320FFF79CBD30
:101AD0007C0D002070B50446808915460026C0B3F1
:101AE000608904EB8000006908606089401C80B256
:101AF0006081E189884200D16681606810B16078B8
:101B000002280BD014F10C04D4E85F0F401E81B200
:101B1000C4E8501F0028F7D1002070BD2046FFF711
:101B2000B9FE0546002100F031F92189E86904EB8E
:101B3000810108612089401C80B22081E1898842AE
:101B400000D12681284600F028F92846FFF72AFE12
:101B5000E2E7FFE73DB10B48626801682AB1204621
:101B600000F0D4F808E0012070BD616001684E60AB
:101B7000006884600120607008212846FFF79AFD04
:101B8000F1E7000064040020002814D0411C13D0A9
:101B90000C4A4FF6FE7190420CD800EB4002C2EBAB
:101BA000C0120948036803EBC202521EB2FBF3F0F5
:101BB000884204D9084670474FF6FF70704780B2DC
:101BC0007047000000093D003C27000870B51B4825
:101BD000012102685170006800F0B4F8184D6C786B
:101BE00018E000BF05EBC40148680278EAB1012A99
:101BF00020D000F0FFF8E878641C844200D1002473
:101C00000F48801CD0E84F1F491EC9B2C0E8421FD0
:101C1000002AF7D1A8780028E4D16C700948FFF7B2
:101C200039FEBDE8704000F011B9098989B2FFF7AB
:101C3000DFFDE0E78968FFF7D5FEDCE764040020FC
:101C4000880C00207C0D00200548017811B101218D
:101C50004170704703494FF08050086070470000A2
:101C60006C04002004ED00E0F0B4154DAB1CEE78E0
:101C70004FEA0507D3E84F2FB24202D1BFF32F8FAF
:101C800011E0521CD4B2C3E8424F002AF2D100BF87
:101C9000D7E84F2F541CB44200D10024E4B2C7E867
:101CA000434F002BF4D1EB78934205D905EBC202E8
:101CB000C2E90101F0BC7047F0BC0220FFF7A4BCF0
:101CC000880C0020104A10B5D368ABB113469B8A2C
:101CD00003E08CB12246A48A2344D4688B42F8D313
:101CE000C460D0600261C46804B12061591A818265
:101CF000908A401A908210BD0024C460D060C91A36
:101D000002619182848210BD940D002030B502786A
:101D10000023022A03D0012A01D0032A00D1012383
:101D20008C7800E01046426812B19578A542F9D24D
:101D30004A6041601BB102B19160886030BD0020F3
:101D4000FBE7000003494A68426000228260486065
:101D5000704700007C0D002010B5836804462BB945
:101D6000607801280ED1084B03E09B6818780028A2
:101D7000FBD0204600F026F82146BDE8104018466A
:101D8000FFF7C4BF10BD00007C0D0020806A016217
:101D90007047806AC0E90812704710B501690029D0
:101DA0000ED0C268CA60C36800223BB18B8A848AA5
:101DB00023448B82C3681961C26000E08A82026199
:101DC00010BD0000816839B142684A60416800294D
:101DD00001D0806888607047054906E04A68824201
:101DE00002D140684860704711460029F6D170471B
:101DF0007C0D002010B5416881B1FFF74BFD044612
:101E0000FFF7CBFF0120607001462046FFF7BEFFC1
:101E10002146BDE810400348FFF778BF4188491CC0
:101E2000418010BD7C0D002006480068D0E90A10F2
:101E3000814203D300680449884202D00120FFF7A1
:101E4000E3BB704764040020A52E5AE20749022232
:101E500048604270064A1278002A05D006C98A42B4
:101E600002D0C078FFF7A2BA7047000064040020D7
:101E70007804002070B5FFF771FA00200446204A6C
:101E8000204902E042F82040401C0B889842F9D3D8
:101E90001D48342201881D48FFF7D3F91C480088EB
:101EA00080B240F000421B4801681B48FFF7C9F9A7
:101EB0001A48082201881A480068FFF7C2F9194D2C
:101EC000FF20194AE870EC8400212846FFF7FAFC4D
:101ED000164804210170446015480170C460046113
:101EE0008482144815490560022068701248047005
:101EF00044700978C170BDE87040FFF715BD00005F
:101F00000C0D00201827000844270008A00400201A
:101F10001C27000848270008180600206C27000826
:101F200034040020480D00202B1600087C0D0020F2
:101F3000940D002064040020880C00205027000825
:101F40001B4810B5016841F47F01016000684FF043
:101F50007F4101EA00201649C0431439B0FA80F0ED
:101F60000968C0F10800C1F30221814200D3481C76
:101F70000F49091F0B686FF08072824063F31702EC
:101F80000A60FFF755FB0B49002808600EDB00F1E3
:101F9000E021FF2281F8002400F01F02012191407E
:101FA0004009800000F1E020C0F8001110BD0000E1
:101FB00020ED00E0700400200C4810B502680121FB
:101FC00051700068FFF7BEFEFFF790FB08480168FC
:101FD000491C0160FFF7AEFB00F0E8FA0548FFF787
:101FE00059FCBDE81040FFF731BF00006404002039
:101FF000740400207C0D0020002805D0810702D148
:102000000178002900D000207047000030B50B4C4B
:102010000023626805E095688D4204D81346126873
:10202000491B002AF7D10260816012B19568691AD4
:1020300091600BB1186030BD606030BD5C04002061
:102040000D4B0022596803E0814204D00A4609681A
:102050000029F9D104E019B1016822B1116003E04F
:102060004FF0FF3070475960016819B18A68806885
:1020700010448860002070475C0400202DE9F04186
:102080001E46174680460D4611F0FF0F00D14D1C2D
:102090001848FFF7E2FA041E16D0280AE762E08427
:1020A000E9B242462046E661FFF70CFC01251248E2
:1020B000124905E000EB850252F8042C32B16D1C88
:1020C0000A889542F6D90020BDE8F081002DFAD0AB
:1020D00000EB850040F8044C0948E570007818B121
:1020E00001212046FFF752F92046FFF75BFB284607
:1020F000EAE70000A00400200C0D002018270008CB
:10210000780400202DE9F05F584DDFF85891DFF892
:10211000588129684FF0010A002618B1CA78AB46E9
:10212000824243D14E70FEF718F829688862FFF7A3
:102130007BFE2868046A1FE06068C0B12046FFF794
:10214000A9FB07460021FFF721FE3846FFF725FED1
:1021500087F801A039464648FFF7D8FDE168A4F8A2
:1021600002A0A760386AE0603C620C4604E0E068C8
:102170006680A660E6600446002CDDD12868C2783F
:1021800008EB820141F8046CC16A3A48FFF758FB3A
:102190002868C66299F8001011B10021FFF7F6F81F
:1021A00035482968FFF74CFB2E6056E03349098813
:1021B00088420CD808EB800858F8045C3DB12846EA
:1021C000FFF700FE2846FFF7E8FD2C6A22E0FF201B
:1021D000BDE8F09F6068C0B12046FFF75BFB074693
:1021E0000021FFF7D3FD3846FFF7D7FD87F801A0A0
:1021F00039461F48FFF78AFDE168A4F802A0A760EE
:10220000386AE0603C620C4604E0E0686680A660E4
:10221000E6600446002CDDD148F8046C1548E96AF4
:10222000FFF70EFBEE6299F8000018B10021284676
:10223000FFF7ACF829461048FFF702FB0C48DBF823
:10224000001040688B7882789A4209D981F801A001
:102250000748DBF80010FFF759FD0020FFF7A2FA4E
:102260000020B5E7780400200C0D00206404002055
:102270007C0D002018060020A0040020182700086C
:1022800070B51A4D80B11A4A128890421FD8194A67
:1022900002EB800050F8044CCCB1A17084F82410FB
:1022A0002868A04205D014E028688170286880F86A
:1022B0002410114840688078884215D90E48296852
:1022C000FFF724FD29680120487000200AE0FF2064
:1022D00070BD2046FFF740FD6078012804D1064814
:1022E000FFF7D8FAFFF75EFA002070BD6404002003
:1022F000182700080C0D00207C0D00200248006803
:10230000002800D0C07870476404002010B5002871
:1023100004D0FFF739FCFFF767FA402010BD00003A
:1023200010B5134C207860B91248400705D1124807
:1023300001681048FFF7EAFA08B1852010BDFFF7E1
:1023400099FD0E49FF2009688870207858B900214E
:102350000B4800F041F80B49086000210A4800F0E2
:102360006BF80A490860012020700020607010BDE1
:102370005C040020D80A00204C27000864040020D8
:10238000642700082C04002054270008280400209B
:1023900070B50F4D687808B1002070BD0D4C2068F5
:1023A00090F824100020FFF76BFF2068C178FF2908
:1023B00003D1816A203181F30988616811B96060B5
:1023C00000202060FFF7BCFD01206870E4E70000FA
:1023D0005C0400206404002010B5040005D02168CE
:1023E00019B1606808B102780AB1002010BD8900F7
:1023F000103189B2FFF7E8FA606810BD3EB50400FD
:102400000D464FF0800012D0217801290FD12846C7
:10241000FFF7BAFB0246204601A9FFF75BFB012844
:1024200001D0102003E00DB1402000E00020DDE9E4
:10243000011203B030BD000070B50E46040029D073
:10244000206838B3606810F1030F23DB032821DC18
:10245000E16829B11048FFF70DF905001AD000E036
:1024600000256068E168001D40EA012133462A46E4
:102470002068FFF703FE40B1084901EB80000849DE
:1024800050F8040C826A516370BD1DB129460248A0
:10249000FFF7ECF9002070BDD80A00200C0D0020D9
:1024A0007515000810B5FFF729FF002804D003496F
:1024B00001EB800050F8040C10BD00000C0D002052
:1024C00010B5FFF799FD18B1C18C19B1C46A02E0CB
:1024D000802010BD0024C078FFF714FEFF2806D02E
:1024E0001CB121460348FFF7C1F9002010BD81202F
:1024F00010BD0000D80A002010B5FFF7DFF920B1A9
:1025000041690A680169104610BD0020014610BDEE
:1025100010B503000CD0186850B15868002808D0D6
:1025200009B1012904D1074C24680CB104790CB11C
:10253000002010BD00240460012404714171C0E931
:10254000042310BD2804002070B50E46FFF7B6F92D
:10255000040016D0BEB1144A00214FF47A731068FB
:102560001268401E41F1FF35E6FB030529460023B2
:10257000FDF79AFE0546207901280CD0022808D1E3
:1025800003E0802070BD862070BD2046FFF758FD17
:1025900020B1812070BD02202071E56029462046CF
:1025A000FFF734FD002070BD3C2700082DE9F04105
:1025B000134E7468002C1CD0A068124F401E4FF0C0
:1025C0000108A06012E025462468746000222946B4
:1025D0003868FEF708FF10B10420FFF715F8687996
:1025E000012808D085F80480002C02D0A0680028BB
:1025F000E9D0BDE8F0812846E968FFF707FDF3E779
:102600005C0400202C0400200008014009000000A8
:102610000008014002000000000C01400A00000018
:10262000001001400A000000001001400C000000F2
:10263000000801400A0000000008014003000000FB
:10264000000C01400B000000001001400B000000D6
:1026500000140140020000000018014000000000CA
:102660000018014001000000000C014009000000BA
:1026700089120008840400200018014000000000B6
:102680000018014001010000001801400202000092
:102690000018014003030000001801400900000079
:1026A000001801400A010000001801400B02000060
:1026B000001801400C030000001801400D04000048
:1026C0000018014006050000001801400F06000038
:1026D000001801400E07000000180140090000002A
:1026E000001801400A010000001801400B02000020
:1026F000001801400C030000001801400D04000008
:102700000018014006050000001801400F060000F7
:10271000001801400E07000007000000C800020179
:1027200005000100001BB7000C000000DF2E0000B8
:10273000010000000200010052000400E803000054
:102740000000000078010000C0040000B00100009B
:1027500010000000DD15000802000000010000006C
:10276000C800000004000000280D00200000000048
:10277000791400080000000001000000C8000000FB
:10278000A027000800000020840400009003000837
:10279000A0290008840400202C0D00003412000839
:1027A000157E10060F12014CFFE0EF0A5C01FFD905
:1027B0000A5C02FFD80A5C03FFD70A5C04FFD60A52
:1027C0005C05FFD50A5C06FFD40A5C07FFD30A5CF0
:1027D00008FFD20A5C09FFD10A5C0AFFD00A5C0B31
:1027E000FFCF0A5C0CFFCE0A5C0DFFCD0A5C0EFF2A
:1027F000CC0A5C0FFFCB0A5C10FFCA0A5C11FFC950
:102800000A5C12FFC80A5C13FFC70A5C14FFC60A01
:102810005C15FFC50A5C16FFC40A5C17FFC30A5C9F
:1028200018FFC20A5C19FFC10A5C1AFFC00A5C1BD0
:10283000FFBF0A5C1CFFBE0A5C1DFFBD0A5C1EFFD9
:10284000BC0A5C1FFFBB0A5C20FFBA0A5C21FFB90F
:102850000A5C22FFB80A5C23FFB70A5C24FFB60AB1
:102860005C25FFB50A5C26FFB40A5C27FFB30A307B
:102870000928FFB2EF7E7F063D4C7E3E6F0A5C0169
:102880007E3D0A5C027E3C0A5C037E3B0A5C047E61
:102890003A0A5C057E390A5C067E380A5C077E3798
:1028A0000A5C087E360A5C097E350A5C0A7E340AB8
:1028B0005C0B7E330A5C0C7E320A5C0D7E310A5C56
:1028C0000E7E300A5C0F7E2F0A5C107E2E0A5C1191
:1028D0007E2D0A5C127E2C0A5C137E2B0A5C147E11
:1028E0002A0A5C157E290A5C167E280A5C177E2758
:1028F0000A5C187E260A5C197E250A5C1A7E240A68
:102900005C1B7E230A5C1C7E220A5C1D7E210A5C05
:102910001E7E200A5C1F7E1F0A5C207E1E0A5C2130
:102920007E1D0A5C227E1C0A5C237E1B0A5C247EC0
:102930001A0A5C257E190A5C267E180A5C277E1717
:102940000A15287E166F2218320102370822071353
:102950000301130902130703330404BC1801404C9C
:102960001910320D2964A914DA0910AA0A241910C1
:10297000320B9A0210320CDA0354296F69103206B6
:102980009A0510320F291469104A0EAC01292D0145
:1029900002030404B80806070809020406D3011C50
:0400000508000131BD
:00000001FF
